:100C66003F065B4F666D7D077F6F777C394F7971E5
:100C760008161514FF131211100D0C0B0A0E03069D
:100C8600090F020508000104070080009B00A00070
:0B0C9600B000C000D000E000F000FF44
:100D460002090000020C0000021500000219000052
:0C0D560002170000C102C103C100C1016E
:100D9600D2AFD2ABD2AA75080A750E0AE4F51CF5D5
:040DA60019F51A22FF
:100D2700751500751606E4F519F51A758901758CA0
:0F0D37003C758AB0D28CD2A9D2AFF517F518222D
:03000B00020D02E1
:100D0200C0E0758C3C758AB0050DE50D7002050CCE
:100D12006414450C700CF50CF50DE51615167002F1
:050D22001515D0E032C0
:100D6300EF1FAA0670011E4A600F7C007D64ED4CE4
:090D730060EEED1D70F81C80F526
:010D7C002254
:060B8D00120DAAEF6078D2
:100B9300120C0C8F1FE51F24F560241460351460BC
:100BA3004214604614604624057045C3E50A940860
:100BB300E50994005052050AE50A7002050922D39B
:100BC300E50A9400E5099400403EE50A150A70021F
:100BD300150922D202C200D203A202E4337509002E
:100BE300F50A22C202D200D20322B20122B20322A8
:100BF300E51FC3940A5011E51F9400400BE51F2520
:080C03001AF51AE43519F51980
:010C0B0022C6
:100B0D00D3E51C6480949B5007750900750A01227A
:100B1D00D3E51C6480949D5007750900750A022267
:100B2D00D3E51C6480949F5007750900750A032254
:100B3D00D3E51C648094A15007750900750A042241
:100B4D00D3E51C648094A55007750900750A05222C
:100B5D00D3E51C648094A75007750900750A062219
:100B6D00D3E51C648094A95007750900750A072206
:100B7D00D3E51C648094A94006750900750A082206
:10080000E4F51DF51E120D962003030209AE20002B
:100810005A200157120CA1120D7DAE09AF0A7C00BF
:100820007D0A120AB88F0FAE09AF0A7C007D0A124A
:100830000AB88D10751210751110E51C75F00A12AA
:100840000A84F513E51C75F00A120A8485F014E495
:10085000F51DF51E120CD6051EE51E7002051DC302
:100860009406E51D940040EC0208C83000652001A4
:1008700062120B0D120CA1120D7DAE09AF0A7C00A5
:100880007D0A120AB88F0FAE09AF0A7C007D0A12EA
:100890000AB88D10751210751110E51C75F00A124A
:1008A0000A84F513E51C75F00A120A8485F014E435
:1008B000F51DF51E120CD6051EE51E7002051DC3A2
:1008C0009406E51D940040ECE4908004F0120B8D3A
:1008D0000208082000030208082001030208081289
:1008E0000D27200103020808E516451570030209CB
:1008F00075200303020975120CA1120D7DAE09AF1C
:100900000A7C007D0A120AB88F0FAE09AF0A7C007C
:100910007D0A120AB88D10AE15AF167C007D3C1210
:100920000AB8AA06AB077C007D0A120AB88F117CB0
:10093000007D0AAF03AE02120AB88D12E51C75F0F5
:100940000A120A84F513E51C75F00A120A8485F070
:1009500014E4F51DF51E120CD6051EE51E700205E9
:100960001DC39406E51D940040ECE4908004F01251
:100970000B8D0208E2E51A4519602030031DAE19FF
:10098000AF1A7C007D3C120AA68E158F16751700D3
:10099000751801E4F519F51A0208E2E518F4FFE507
:1009A00017F44F24FF9203C201C2000208E2E4F5EB
:1009B00009F50AE50A25E0FFE50933FE748F2FF5F6
:1009C00082740C3EF583740193909000F07F0A7E50
:1009D00000120D63751D00751E01AD1E7F10120CF7
:1009E000E1051EE51E7002051DC39407E51D940078
:0809F00040E8120B8D0208081B
:0B0CD600AE1E740F2EF8E6FFEE04FDCA
:100CE100AE057440A806088002C313D8FC908002A8
:100CF100F0EF900C6693908004F07F197E00020C57
:010D0100C031
:100D7D00E490A000F07F01FE120CC090A000E0F501
:090D8D001B75F0648485F01C2242
:100CA100E50A25E0FFE50933FE748F2FF582740C08
:0F0CB1003EF583E4740193909000F07F0A7E007B
:100CC000EF1FAA0670011E4A600BE4FDEDC3946499
:050CD00050EE0D80F75D
:010CD50022FC
:0E0DAA00E4908002F0908001E0F4540FFF22EC
:100C0C007C067F20EFF4908002F0EFC313FF9080FE
:100C1C0001E0F4540FFE1CEC6003EE60E7EE60376D
:100C2C00EC25E025E0FCEE30E1030C800FEE30E229
:100C3C00040C0C8007EE30E3030C0C0CE4908002E7
:100C4C00F07F057E00120CC0120DAAEF70F3EC9031
:090C5C000C7793540FFF227F0F67
:010C6500226C
:030000000209F8FA
:0C09F800787FE4F6D8FD758120020A3FEC
:100A8400C2D530F707B2D563F0FF05F030E70CB2FA
:100A9400D5F4048463F0FF05F080018430D502F4BA
:020AA40004222A
:100AA600EF8DF0A4A8F0CF8CF0A428CE8DF0A42E64
:020AB600FE221E
:100AB800BC000BBE0029EF8DF084FFADF022E4CC22
:100AC800F875F008EF2FFFEE33FEEC33FCEE9DECEB
:100AD800984005FCEE9DFE0FD5F0E9E4CEFD22ED31
:100AE800F8F5F0EE8420D21CFEADF075F008EF2F7B
:100AF800FFED33FD4007985006D5F0F222C398FD6C
:050B08000FD5F0EA2208
:100A0400020800E493A3F8E493A34003F68001F200
:100A140008DFF48029E493A3F85407240CC8C333F3
:100A2400C4540F4420C8834004F456800146F6DFC2
:100A3400E4800B0102040810204080900D46E47EFF
:100A4400019360BCA3FF543F30E509541FFEE493B7
:100A5400A360010ECF54C025E060A840B8E493A37E
:100A6400FAE493A3F8E493A3C8C582C8CAC583CAA9
:100A7400F0A3C8C582C8CAC583CADFE9DEE780BE61
:010D62000090
:00000001FF
